:100000000C94B6020C94DE020C94DE020C94DE0218
:100010000C94DE020C94DE020C94DE020C94DE02E0
:100020000C94DE020C94DE020C94DE020C94DE02D0
:100030000C94DE020C94DE020C94DE020C94DE02C0
:100040000C94BC110C94DE020C94DD0C0C94B70CD7
:100050000C94DE020C94DE020C94DE020C94DE02A0
:100060000C94E2060C94DE025F0003030404030414
:10007000050C0BFFFE08FE08FE01760345048B20ED
:100080000500CC09210882C4894B8C002208336DFD
:100090008B884A0023128744BC4830123245829133
:1000A0009029128CC4002410A53CAB58252209319C
:1000B0004524915A080025198AC41D914C2289496A
:1000C000122529224944128C486221492C260126F6
:1000D0001188C42CA92428894A233291126522014F
:1000E0002706316D8A01280CA4B4BA504822D226C2
:1000F0000B06290CA4B48A604C498B280D002A0BEE
:10010000555CAB949449A610002B0A554CAB60A8E3
:10011000140C012C0842B4098A04002D06135C8AD1
:10012000012E0622C409022F0C84C4BAA458281632
:100130008AC500300B85449B89842F9209003109C0
:1001400084451BC9482F04320D85449B89842213A2
:1001500089628701330E85449B898422125228923A
:100160000900340C8544AB95882432BA8906350CD5
:1001700085448B8324C842914C00360D85449B896D
:10018000844691B0482600370B84448B432C140BD3
:100190006901380E85449B898422994858241300AC
:1001A000390D85449B89844542A34826003A07526D
:1001B000C40912013B0872B4091245023C0856CC2E
:1001C0004B91B2023D0735548B6A013E0956CC0B68
:1001D000B19222003F0D85449B899A481407C94477
:1001E000004014A93CBDA14C148D8428FA49228AF0
:1001F00043E420120041108943CC38603C0D094390
:10020000B253503222421087440C938A4852521102
:100210004944870800430E8744AC491A71AA18095B
:10022000862800441288C40C9B2C2493C82432894D
:100230004C228B9800450F86C40B8B2822099124F1
:1002400021514474461086C40B8B28228A484224CC
:1002500049484602470F8744AC491A712AAA4962A5
:10026000A24900481189440D0A452692894E3291CF
:100270004C249330490984C40A8A482F044A0C86C6
:10028000C42B9A5045979068044B1189C40C925A1C
:100290004C1494448B22990A69004C0B86C40B9A27
:1002A00050A788E8004D198B440E1A65368A4822FB
:1002B000A28824228A4822A29052486522214E1404
:1002C00088C40CD944161A8528A10829348A49669D
:1002D00011004F0D8744AC598A8C9B24161B01508A
:1002E0000F87440C938A48229294A4421A00511416
:1002F000983CAC612C2493C824320945241152A2A5
:100300001200520D88C40C9B48A7584DA485325347
:100310000C86C49B255AB1469A4C00540C86C48B5B
:100320008B9690501B0500551388C40CCA44169236
:1003300085642159481692C54800561288C40CCAD3
:10034000441692C5244149501215CB0057198B44CD
:100350000E8A6422128594429288242489486293EA
:10036000A14C281301581188C40CCA44169A04C71A
:10037000C3C828269910591088C40CCA441693047F
:100380002551B12A09005A0A86C48B9B6CB44D765C
:100390005B08A3348A8A7E195C0C84C48A583016A0
:1003A0008C0563015D08A3348A897E295E0B655440
:1003B000AB606C144993055F0616340B036007238A
:1003C000740A9100610854C48A998462620D86C4DB
:1003D0000BA116C984449A4C00630B55449B896851
:1003E000268A4C00640B86C4BBA1CA8965A200653D
:1003F0000955449B89E42024660D85C4AA892422DA
:1004000022C9942800670C8634CBD048A26966BB09
:1004100000680B86C40BA116C984C424690A84C46D
:100420001A9174A485006A0AA3B41AB5892E14001F
:100430006B0C86440BA11609892451196C0884C4DD
:100440008A91BE106D0E5AC40D8948B24212914471
:1004500024056E0A56C40B89644262126F0A56C4A0
:100460001B8A88494201700D76B40B896442225D73
:10047000843300710F77B49B8A482292484612A9B0
:100480009000720954C40AC9490900730854C49AF7
:1004900012A902740973449A88A4A224750956C447
:1004A0000B11978902760C56C48B894A4812138A1D
:1004B00000770F59448D892E21892426114A440042
:1004C000780B56C48B894A4C165119790E76B48B29
:1004D000894A4812138A6642007A0955440B8B48B0
:1004E000C9007B0BA4B42A89484526D2267C078103
:1004F000468B43007D0CA4B40A99484D22D22202B7
:100500007E0826DC9B89640200000004FFFF0000D7
:100510000000000023002600290000000000240045
:1005200027002A0000000000250028002B000404FA
:10053000040404040404020202020202030303038B
:100540000303010204081020408001020408102067
:10055000010204081020000000080002010000034E
:1005600004070000000000000000DA1811241FBE7C
:10057000CFEFD8E0DEBFCDBF12E0A0E0B1E0E0E811
:10058000F2E402C005900D92A431B107D9F728E03A
:10059000A4E1B2E001C01D92AE35B207E1F712E06E
:1005A000C6EBD2E004C02197FE010E94E21BC53BCE
:1005B000D107C9F70E9406120C943E210C9400004A
:1005C000213039F020F0223031F4861B0895860F57
:1005D0000895841B0895840F0895213039F020F088
:1005E000223031F4841B0895840F0895860F0895F6
:1005F000861B0895DC0118964C911897ED91FC919B
:100600001197249130E0042E02C0359527950A9465
:10061000E2F7842F860F883010F4E22F0DC0319658
:100620001196FC93EE93E49198E0941B01C0EE0FB9
:100630009A95EAF7E22B885018968C9381E090E027
:1006400001C0880F6A95EAF781508E23089585EDE1
:100650008093BC008091BC0084FDFCCF1092CB0243
:10066000089540917B02262F30E0240F311D213266
:100670003105DCF42091CB022430C9F4FC0180E088
:1006800090E0861758F430917B022191DC01A75A43
:10069000BD4FA30FB11D2C930196F3CF80917B0228
:1006A000680F60937B0280E0089581E0089582E006
:1006B0000895089508950895E091CD028091CC02A7
:1006C000E81730F4F0E0E253FD4F808190E00895A8
:1006D0008FEF9FEF08959091CD028091CC029817F3
:1006E00050F4E92FF0E0E253FD4F208130E09F5FAE
:1006F0009093CD0202C02FEF3FEFC9010895809182
:10070000CC0290E02091CD02821B91090895CF92F6
:10071000DF92EF92FF920F931F93CF93DF937C01B1
:10072000CB018A012091A402222389F0EB016B0105
:10073000C40ED51ECC15DD0569F06991D701ED9188
:10074000FC910190F081E02DC7010995F3CF642F52
:100750000E943103C801DF91CF911F910F91FF904B
:10076000EF90DF90CF900895CF93DF931F92CDB796
:10077000DEB769832091A4022223D1F02091A10247
:10078000203240F021E030E0FC013383228380E01E
:1007900090E015C08091A202E82FF0E0E75CFD4FE9
:1007A000998190838F5F8093A2028093A10205C0FC
:1007B00061E0CE0101960E94310381E090E00F904C
:1007C000DF91CF910895CF92DF92EF92FF920F9336
:1007D0001F93CF93DF936C01EB017B01E40EF51EB9
:1007E00000E010E0CE15DF0561F06991D601ED91D2
:1007F000FC910190F081E02DC6010995080F191FA9
:10080000F1CFC801DF91CF911F910F91FF90EF9031
:10081000DF90CF900895089580E090E008955F9272
:100820006F927F928F929F92AF92BF92CF92DF9200
:10083000EF92FF920F931F93CF93DF935C01F62EFD
:10084000642EEC01C15BDF4F1C81DD804C0189E728
:10085000880E911CEE80E11ACF2CEF1408F4CE2CF8
:100860005B800C85202F4D2D612F8A810E94E00234
:10087000782E202F4D2D612F852D0E94ED02482FBF
:10088000662011F08A8504C08985811108C08B8596
:10089000F40180832C2D672DC5010E949F0DFE144D
:1008A00020F0FE18D39410E0D5CF1F0D1C83DD82FD
:1008B000DF91CF911F910F91FF90EF90DF90CF903C
:1008C000BF90AF909F908F907F906F905F900895B2
:1008D0000F931F93CF93DF93EC01862F642F8C32FD
:1008E00070F48A3208F078C0883289F0893209F0D1
:1008F00042C070E080E090E00E9482116DC08D32B5
:10090000D1F0C8F194EB980F923020F134C08E01F1
:10091000025E1F4FD0E0F80181918F018F3F39F0C7
:10092000D03110F461E001C062E00E944611DF5F47
:10093000D63189F751C0433018F082E090E002C010
:1009400085E090E0880F991F880F991F0597019700
:10095000F1F742C08F73C80FD11D411107C061E08C
:100960008E8D0E94461160E08E8D12C062E08E8DE9
:100970000E94461131C0803408F430C0982F9F7314
:10098000FE01E90FF11D868D8F3F31F1903118F492
:100990000E94B11021C0282F30E0F901EA5AFA4F25
:1009A0008491F901EE5BFA4F0491F901E25DFA4F8F
:1009B0001491112379F081110E948810E12FF0E049
:1009C000EE0FFF1FE05FFA4FA591B491EC91E02389
:1009D00081E009F480E0898F81E001C080E0DF914F
:1009E000CF911F910F910895FC01E60FF11D8491A5
:1009F00090E0982F88273196E4918E0F911D0895ED
:100A00006F927F928F929F92AF92BF92CF92DF921E
:100A1000EF92FF920F931F93CF93DF93EC01062F7A
:100A2000142F7901FC01E55AFF4F80818130C9F014
:100A300070F0823001F1833039F5FE01E35BFF4F46
:100A40000190F081E02DCE010995080F1DC0FE0137
:100A5000E35BFF4F0190F081E02DCE010995180F67
:100A600013C0FE01E35BFF4F0190F081E02DCE014A
:100A70000995081B09C0FE01E35BFF4F0190F0815F
:100A8000E02DCE010995181BFE01EF5AFF4F0083A0
:100A90003196108337978081918147962FEFE21628
:100AA000F10409F040F5E1E6EE16F10420F0FE0154
:100AB000E159FF4F07C0F1E4EF16F10438F0FE01F1
:100AC000E359FF4F20813181820F931F9C012F5FDB
:100AD0003F4FF9014491442309F40EC1FC014491B4
:100AE00050E0E416F50611F4029634C0F9012491A1
:100AF000820F911DEBCFFE01EF58FF4FC080D180D8
:100B0000C80ED91E860160E0C6010E94F404080FD9
:100B1000191F62E0C6010E94F404F4E0CF0ED11C5C
:100B20008E159F0580F3F801849190E0982F882717
:100B30003196E4918E2B009709F4DEC0E816F90691
:100B400019F4C801039606C0F8013296E4910E0F1D
:100B5000111DE9CF009709F4CFC07E01FFE4EF0E2D
:100B6000F11CF70191838083108671966081C70123
:100B70000E94FA02F701868372966081C7010E9483
:100B8000FA02D82EF70187835E01F9E7AF0EB11C98
:100B9000F5019081F701928781E0911180E0F701E2
:100BA0008387FE01EE59FF4F1081612FC7010E941C
:100BB000FA029FEF910F01E010E0980101C0220FAF
:100BC0009A95EAF7782E721AFE01ED59FF4FC08010
:100BD0006C2DC7010E94FA02CA94480101C0880C1A
:100BE000CA94EAF7682E6D0CFE01EC59FF4FC080E5
:100BF0006C2DC7010E94FA02CA9401C0000FCA946A
:100C0000EAF7C82EC01AF701068110160CF075C05D
:100C100094848618292D482D672D82810E94E00238
:100C2000182FF7018283292D482D672D83810E947B
:100C3000ED02F7018383F1E09F16B1F09F1678F083
:100C400022E09216B9F093E099121FC0212F2D0DCA
:100C5000982F901B01E0080F81E0890F18C0202F0A
:100C6000210F082F0D0D13C09D1821E0210F080F33
:100C7000190D0DC091E0392F301B21E0210F9D1976
:100C800001E0080F890F130F02C0082F212F482FF2
:100C9000612FCE010E940F0D882379F1F701148294
:100CA00015828E01025A1F4F4E01FFE58F0E911CD7
:100CB000F8016081C7010E94FA02682EF401608188
:100CC000C7010E94FA02782E40E0662DCE010E94F4
:100CD0000F0441E0672DCE010E940F0461E0C701BF
:100CE0000E94FA028111F0CFF70185818D1504F37E
:100CF0008285F501808301C0C12C8C2DDF91CF91BD
:100D00001F910F91FF90EF90DF90CF90BF90AF9029
:100D10009F908F907F906F900895CF92DF92EF9287
:100D2000FF920F931F93CF93DF93EC016C0124E0AC
:100D3000C20ED11CFC01E158FF4F0190F081E02D63
:100D4000C60109958E3FEFEF9E0730F58E010E57D5
:100D50001F4F7E01F1E8EF0EF11C9C01F80140816C
:100D6000F7016081C6010E940005C15ADF4F9881DA
:100D7000913049F030F0923051F0933069F4F8013D
:100D800007C0F70101C0F8019081890F04C0F70185
:100D90009081981B892F808381E090E0DF91CF9133
:100DA0001F910F91FF90EF90DF90CF9008950895DD
:100DB0008EBD00000DB407FEFDCF8EB508958CBD2D
:100DC0009DBD08951F920F920FB60F9211242F937D
:100DD0003F934F935F936F937F938F939F93AF93C3
:100DE000BF93EF93FF938091B900887F803609F419
:100DF0009CC068F5883209F45BC090F4803109F436
:100E000054C038F4882309F4F6C0883009F44DC082
:100E1000F6C0883109F44CC0803209F45DC0EFC0DF
:100E2000803409F468C048F4803309F455C088332D
:100E300009F0E5C08093C902D8C0803509F44FC0DD
:100E4000883509F45DC0883409F0D9C0D6C0883926
:100E500009F4C7C0A8F4883709F467C038F48836A5
:100E600009F463C0803709F460C0C9C0883809F448
:100E7000B8C0803909F45FC0803809F0C0C05BC0D9
:100E8000803B09F486C038F4803A09F466C0883A99
:100E900009F47FC0B4C0803C09F4A7C0883C09F4C1
:100EA000A4C0883B09F48AC0AAC08091C60210C0C1
:100EB0009091C8028091C702981770F5E091C8021E
:100EC00081E08E0F8093C802F0E0EB55FD4F8081EA
:100ED0008093BB0085EC86C08093C9028EC0E091F0
:100EE000C80281E08E0F8093C8028091BB00F0E0C1
:100EF000EB55FD4F80839091C8028091C7026EC070
:100F0000E091C80281E08E0F8093C8028091BB00FF
:100F1000F0E0EB55FD4F80838091CA0281116DC0D6
:100F200081E08093C50284EA61C083E08093CB02B4
:100F300010929F02CFCF80919F02803208F051C063
:100F4000E0919F0281E08E0F80939F028091BB0011
:100F5000F0E0E158FD4F8083BDCF85EC8093BC006D
:100F60001092CB0280919F02803230F4E0919F0278
:100F7000F0E0E158FD4F108260919F0270E0E09137
:100F80007D02F0917E028FE792E0099510929F0218
:100F900036C084E08093CB0210927C0210927B02D8
:100FA000E0917902F0917A02099580917B0281119A
:100FB00005C081E080937B0210925902E0917C028F
:100FC00081E08E0F80937C02F0E0E75AFD4F808134
:100FD0008093BB0090917C0280917B02981708F46B
:100FE00079CF85E88093BC000AC085EC8093BC0073
:100FF0001092CB0204C01092C9020E942703FF91F5
:10100000EF91BF91AF919F918F917F916F915F9180
:101010004F913F912F910F900FBE0F901F901895F9
:101020003091A102313208F04BC08091CB02811186
:10103000FCCF9091A30222E02093CB0221E02093E9
:10104000CA022FEF2093C9021092C8023093C70240
:10105000E9E3F2E0A5EAB2E020E0321721F04191A5
:101060004D932F5FFACF1092C6022091C602990FBE
:10107000922B9093C6029091C502913061F4109228
:10108000C5029091C6029093BB009091BC0093FD65
:10109000F8CF95EC01C095EE9093BC009091CB02F7
:1010A0009230E1F39091C9029F3F79F08091C9029B
:1010B000803241F08091C902803331F084E005C074
:1010C00081E003C082E001C083E01092A20210928E
:1010D000A1021092A40208951092CD021092CC02A7
:1010E0001092A2021092A1021092CB0281E0809392
:1010F000CA021092C50261E082E10E94B11061E073
:1011000083E10E94B110E9EBF0E080818E7F808363
:1011100080818D7F808388E48093B80085E480930C
:10112000BC0089E593E090937A02809379028AE586
:1011300093E090937E0280937D020895CF93DF9396
:10114000EC01962F683181F1B901993158F494314D
:1011500079F0973109F050C050E08BE893E00E949D
:10116000870320C0993109F442C09032D9F044C0BD
:101170008C859D85AE85BF85892B8A2B8B2B71F441
:10118000E881F981A585B0E020EA36E841E050E049
:101190000E94211A6C877D878E879F878BE893E05A
:1011A0000E946C0881E029C02C853D854E855F85B5
:1011B00060E074E284EF90E00E942C1ADA01C90129
:1011C0004097A109B109B695A79597958795809302
:1011D000B8008E8990E09595879591E09093A40250
:1011E0008093A3021092A2021092A102DBCF8BE89F
:1011F00093E00E941008D6CF80E0DF91CF91089550
:10120000CF92DF92EF92FF920F931F93CF93DF93D2
:101210006C017A018B01C0E0D0E0CE15DF0581F0D2
:10122000D8016D918D01D601ED91FC910190F08175
:10123000E02DC6010995892B11F02196EECF7E0194
:10124000C701DF91CF911F910F91FF90EF90DF9039
:10125000CF900895FC01538D448D252F30E0842FCD
:1012600090E0821B930B541710F0CF9608950197CE
:101270000895FC01918D828D981761F0828DDF01B8
:10128000A80FB11D5D968C91928D9F5F9F73928F79
:1012900090E008958FEF9FEF0895FC01918D828D6E
:1012A000981731F0828DE80FF11D858D90E008953B
:1012B0008FEF9FEF0895FC01918D228D892F90E093
:1012C000805C9F4F821B91098F73992708958EEE42
:1012D00092E00E945B0921E0892B09F420E0822F33
:1012E0000895FC01848DDF01A80FB11DA35ABF4FE3
:1012F0002C91848D90E001968F739927848FA68915
:10130000B7892C93A089B1898C91837080648C9368
:10131000938D848D981306C00288F389E02D808117
:101320008F7D80830895EF92FF920F931F93CF9349
:10133000DF93EC0181E0888F9B8D8C8D981305C025
:10134000E889F989808185FD26C0F62E0B8D10E095
:101350000F5F1F4F0F731127E02E8C8DE8120CC00A
:101360000FB607FCFACFE889F989808185FFF5CFB0
:10137000CE010E947109F1CF8B8DFE01E80FF11DA6
:10138000E35AFF4FF0829FB7F8940B8FEA89FB89ED
:10139000808180620AC09FB7F894EE89FF896083DC
:1013A000E889F98980818370806480839FBF81E0B0
:1013B00090E0DF91CF911F910F91FF90EF900895F2
:1013C000CF93DF93EC01888D8823C9F0EA89FB89EC
:1013D000808185FD05C0A889B9898C9186FD0FC0E3
:1013E0000FB607FCF5CF808185FFF2CFA889B989B8
:1013F0008C9185FFEDCFCE010E947109E7CFDF917F
:10140000CF91089580E090E0892B29F00E94670930
:1014100081110C940000089580E00895DC011A9673
:10142000ED91FC911B9720E030E00994DC011696C9
:10143000ED91FC91179720E030E040E069E10994DC
:10144000DC011696ED91FC91179720E030E040E02A
:1014500068E109949A01DC011696ED91FC911797C9
:10146000462F67E10994EF92FF920F931F93CF935A
:10147000DF931F92CDB7DEB77C018B01D8016C9151
:101480006731E1F078F46531A0F1F80141814983D9
:10149000D7011696ED91FC91179720E030E0C70137
:1014A000099524C06A31A8F06E3F19F5F801418111
:1014B000498369E2C7010E940E0A18C0F8018181C0
:1014C0008983AE014F5F5F4F61E0C7010E942A0A26
:1014D0000DC00F5F1F4FD7011696ED91FC91179726
:1014E00020E030E040E0C7010995C8CF0E5F1F4FF4
:1014F000C5CF0F90DF91CF911F910F91FF90EF908B
:101500000895462FDC011696ED91FC91179720E087
:1015100030E066E10994462FDC011696ED91FC91CE
:10152000179720E030E065E10994EF92FF920F9366
:101530001F93CF93DF93EC01142F79016D30A9F144
:1015400018F46B3039F15FC06E3009F441C06F3070
:1015500009F059C00E94200AF70183810C89F8E044
:101560008F9F000D112460E4CE010E948B0A602F32
:1015700062956F706061CE010E948B0A602F6F7060
:10158000CE010E94810AF7016481606BCE010E9446
:10159000810A29C0411103C064E271E002C06FE119
:1015A00071E0CE010E94330A71C0411108C068E1A8
:1015B00071E00E94330AE881F981828907C061E104
:1015C00071E00E94330AE881F98183898C8B5EC0C7
:1015D0000E94200A61E8CE010E948B0A612FCE0191
:1015E0000E94810A0CC0F701408151816281660F1F
:1015F000660F660FCE010E942A0A1150A1F7CE0194
:101600000E94160A43C0693031F48EE591E0998357
:1016100088831C8A3BC06A30B9F5EA85FB8520E0E7
:1016200030E040E068E2CE010995EE81FF8120E0E4
:1016300030E040E064E1CE01099541E06BE4CE0189
:101640000E940E0AE881F981448169E2CE010E947C
:101650000E0A40E06BE4CE010E940E0AE881F98197
:10166000448169E2CE010E940E0A41E06BE4CE01A2
:101670000E940E0AE881F981458169E2CE010E944B
:101680000E0A69E271E08DCF80E001C081E0DF9158
:10169000CF911F910F91FF90EF900895DC01189664
:1016A000ED91FC91199720E030E040E069E1099468
:1016B000DC011896ED91FC91199720E030E040E0B4
:1016C00068E10994662329F06A3019F0862F90E0CA
:1016D00008958FEF9FEF08950F93DC01DE963C9104
:1016E000DE97431BD496ED91FC91D59709950F9108
:1016F0000895CF93DF93FC01A081B18192AD892F32
:10170000880F880F880F85AF50968C915097803244
:1017100008F08FE1880F880F880F84AF23AD822FE8
:10172000880F880F880F86AF51963C915197422FB2
:1017300050E0490F511D632F70E06417750714F4D2
:10174000932F921B87AFEF01C05CDF4F28E0929F81
:10175000800D11248883219680EF888354968D9183
:101760009C915597813F910508F48883EE5BFF4F6C
:1017700056968C918083DF91CF910895EF92FF92DE
:101780000F931F93CF93DF93EC01742F7770E1E0F9
:10179000F0E0072E01C0EE0F0A94EAF73E2F7C011D
:1017A00089E7E80EF11CD7018C91823028F41E2FB6
:1017B000813019F430E001C010E050E0487F88AD7E
:1017C00099ADA881B9815096FC91F49FD001F59F05
:1017D000B00D1124A60FB11DA80FB91F01110BC028
:1017E0008C91812B83278D932150D1F71CC0110F31
:1017F000330F2223C1F09C91912B93279C937F5F01
:10180000777021507111F3CF8CADA80FB11DF70186
:101810008081823020F4813021F031E002C031E05B
:10182000E8CF11E0E6CFDF91CF911F910F91FF90AC
:10183000EF90089580E008950E947F1ECF93DF937C
:101840001F92CDB7DEB76983BE016F5F7F4F0E94E5
:101850007F100F90DF91CF910895EF92FF921F9329
:10186000CF93DF93EC01162F7A010E94580B60E4AE
:10187000CE010E941E0CE885F9859701412F67E192
:10188000CE010995CE01DF91CF911F91FF90EF908E
:101890000C944E0BEF92FF921F93CF93DF93EC01CA
:1018A000142F7901663121F128F46431E9F16531B1
:1018B00049F056C0683109F44FC0F0F0693109F4BD
:1018C00044C04EC08091A002882319F0CE010E942E
:1018D0004E0BCE010E94580B60E0CE010E941E0C00
:1018E000612FCE010E941E0C81E08093A00239C0BE
:1018F000642F0E941E0C32C08091A002882319F030
:10190000CE010E944E0BA701193148F068E1CE01CB
:101910000E942D0C185188E1E80EF11CF4CF612FC4
:10192000CE010E942D0C18C08E898F3F11F488E7DC
:101930008E8BE885F9859701412F64E1CE01DF9117
:10194000CF911F91FF90EF9009948091A00288237E
:1019500019F0CE010E944E0B1092A00281E001C04E
:1019600080E0DF91CF911F91FF90EF9008951F923B
:101970000F920FB60F9211242F933F934F935F93C3
:101980006F937F938F939F93AF93BF93EF93FF9347
:101990008EEE92E00E947109FF91EF91BF91AF919D
:1019A0009F918F917F916F915F914F913F912F9177
:1019B0000F900FBE0F901F9018951F920F920FB6A9
:1019C0000F9211242F938F939F93EF93FF93E091A6
:1019D000FE02F091FF028081E0910403F091050383
:1019E00082FD12C09081809107038F5F8F732091D9
:1019F0000803821751F0E0910703F0E0E251FD4F38
:101A0000958F8093070301C08081FF91EF919F9193
:101A10008F912F910F900FBE0F901F9018950F93DD
:101A2000FC01EB5BFF4F308131965081451728F464
:101A3000301730F0041720F010C03017D8F30DC065
:101A4000FC01ED5BFF4F308131968081681738F4DF
:101A5000321740F081E0261730F080E004C03217E2
:101A6000C8F3FBCF81E00F9108952F923F924F92E0
:101A70005F926F927F928F929F92AF92BF92CF921E
:101A8000DF92EF92FF920F931F93CF93DF93EC01BE
:101A90004C0183E4880E911CF4011082329720805F
:101AA0005E01F4E4AF0EB11CF50120823FAC6E0183
:101AB000F5E4CF0ED11CF6013082359740807E01CF
:101AC000F6E4EF0EF11CF701408234961081329754
:101AD00060803196708032975080012F262D472DDF
:101AE000652DCE010E940F0DCD58DF4F811102C030
:101AF000188212C081E08883552011F0F4015082D1
:101B0000621410F4F5016082371410F4F60170824B
:101B1000141510F4F7011083DF91CF911F910F91ED
:101B2000FF90EF90DF90CF90BF90AF909F908F90FD
:101B30007F906F905F904F903F902F9008950F93FC
:101B4000DC01802FFD01ED58FF4F9081992309F4AE
:101B500063C0222309F460C0223048F0023019F437
:101B60006F5F621B04C0033011F44F5F421B082FEC
:101B70000170FD0180FD25C0EB5BFF4F80814817A0
:101B800008F44AC031968081481708F045C0329762
:101B9000908131978081260F261730F4691718F449
:101BA0002FEF290F03C0682F6917B0F58217A0F532
:101BB000681708F4682F291708F4922F292F261B7D
:101BC00022C0ED5BFF4F8081681730F13196808134
:101BD000681710F53296908131978081240F241771
:101BE00030F4491718F42FEF290F03C0482F491775
:101BF00098F4821788F4481708F4482F291708F436
:101C0000922F292F241BD696ED91FC91D797048013
:101C1000F581E02DCD0109950F9108958091CB02BA
:101C20008111FCCF413208F040E281E08093CB0289
:101C30008093CA029FEF9093C9021092C802940F3A
:101C40009093C7028093C6028091C602660F682BEC
:101C50006093C6028091C502813061F41092C50282
:101C60008091C6028093BB008091BC0083FDF8CFB9
:101C700085EC01C085EE8093BC008091CB02813061
:101C8000E1F38091C802841710F44091C802E5EA9C
:101C9000F2E0AEECB2E080E0841721F091919D93E8
:101CA0008F5FFACF1092CD028093CC020895CF932C
:101CB000DF93C2EDD3E08FAFEAADFBAD0190F081D1
:101CC000E02D86ED93E00995EAADFBAD0280F3814E
:101CD000E02D86ED93E0DF91CF910994FC01A08186
:101CE000B18150969C9142AD949FA001112483E054
:101CF000440F551F8A95E1F760E070E080AD91AD2B
:101D00000C94841EDC011496ED91FC91159720E053
:101D100030E040E060E10994AF92BF92CF92DF9251
:101D2000EF92FF920F931F93CF93DF9300D000D0D9
:101D30001F92CDB7DEB78C01DC01DA96AC90DA9752
:101D4000DB96EC90DB97ED91FC91B188FE2CC12CD9
:101D5000D12CD801ED91FC9111978089D8964D91A5
:101D60005C91D9971C82FD828B83B8E08B9FC00168
:101D700011248C9D90018D9D300D9C9D300D112462
:101D8000CA01820F931F9A838983D8011496ED911B
:101D9000FC9115979E012F5F3F4F41E06FE0C80116
:101DA0000995F3948F2D8E198A1528F4BFEFCB1A5D
:101DB000DB0AFB1470F20F900F900F900F900F90B2
:101DC000DF91CF911F910F91FF90EF90DF90CF9017
:101DD000BF90AF900895EF92FF921F93CF93DF9340
:101DE0001092EE037C0110E0DAE0C0E0F7016191AF
:101DF0007F01E091D803F091D90386ED93E0099536
:101E00008F3FFFEF9F07E9F08E3F2FEF920771F3AF
:101E10009C014D2F6C2F86ED93E00E940005909160
:101E20003104913049F030F0923041F0933039F480
:101E3000D81B05C0C80F03C0D80F01C0C81B180F9E
:101E4000D5CF812FDF91CF911F91FF90EF90089513
:101E5000009769F0FC0101900020E9F73197AF018C
:101E6000481B590BBC018EEE92E00C94000980E0F7
:101E700090E008950F931F93CF93DF93EC01062F0B
:101E8000142F809197038823B9F0813009F071C035
:101E900080919A0390919B030E94DF0660E08091FD
:101EA00099030E94B110802F80680E94D806CE014D
:101EB000810F911D8C014AC08091CB03813009F0C4
:101EC00058C0909198038093A4029093A30210921B
:101ED000A2021092A1028091CC039091CD03DC016B
:101EE000ED91FC910190F081E02D09958091CC035A
:101EF0009091CD030E941008412F6091980380912A
:101F0000CC039091CD030E940E0ECE01810F911D46
:101F10008C018091CC039091CD03DC01ED91FC917B
:101F20000084F185E02D0995892B19F1C017D1079F
:101F300001F18091CC039091CD03DC01ED91FC91F6
:101F40000284F385E02D09958993E3CFC017D1076B
:101F500029F080E00E94D8068993F8CF61E0809153
:101F600099030E94B110DF91CF911F910F910C94B2
:101F7000D706DF91CF911F910F910895CF93DF93F3
:101F80001F92CDB7DEB7682F1982809197038823FF
:101F900049F0813009F048C041E0CE0101960E942D
:101FA0003A0F42C08091CB038130F1F590919803B4
:101FB0008093A4029093A3021092A2021092A10215
:101FC0008091CC039091CD03DC01ED91FC910190C7
:101FD000F081E02D09958091CC039091CD030E9472
:101FE000100841E0609198038091CC039091CD035B
:101FF0000E940E0E8091CC039091CD03DC01ED91F7
:10200000FC910084F185E02D0995892B69F0809180
:10201000CC039091CD03DC01ED91FC910284F3851A
:10202000E02D09958983E6CF89810F90DF91CF91CB
:1020300008953FB7F89480915A0890915B08A09159
:102040005C08B0915D0826B5A89B05C02F3F19F02C
:102050000196A11DB11D3FBFBA2FA92F982F882728
:10206000820F911DA11DB11DBC01CD0142E0660F83
:10207000771F881F991F4A95D1F708958F929F92D5
:10208000AF92BF920F931F93CF93DF93CDB7DEB77D
:10209000A1970FB6F894DEBF0FBECDBF19A2423094
:1020A00008F44AE08E010F5D1F4F842E912CA12C65
:1020B000B12CA50194010E942C1AE62FB901CA0186
:1020C00001501109EA3014F4E05D01C0E95CD80167
:1020D000EC93232B242B252B61F7C8010E94280F9A
:1020E000A1960FB6F894DEBF0FBECDBFDF91CF91A2
:1020F0001F910F91BF90AF909F908F9008959B017B
:10210000DC011896ED91FC91199741E067E1099483
:10211000833081F028F4813099F08230A1F0089565
:102120008730A9F08830B9F08430D1F480918000F4
:102130008F7D03C0809180008F7780938000089509
:1021400084B58F7702C084B58F7D84BD089580915A
:10215000B0008F7703C08091B0008F7D8093B00076
:1021600008951F93CF93DF93282F30E0F901EA5AA7
:10217000FA4F8491F901EE5BFA4FD491F901E25DD7
:10218000FA4FC491CC23C1F0162F81110E94881000
:10219000EC2FF0E0EE0FFF1FEC5DFA4FA591B4912C
:1021A0009FB7F894111104C08C91D095D82302C028
:1021B000EC91DE2BDC939FBFDF91CF911F910895AF
:1021C000CF93DF93D82FC62F809197038823F1F008
:1021D000813009F049C080919A0390919B030E943D
:1021E000DF0660E0809199030E94B1108D2F8F77F8
:1021F0000E94D8068C2F0E94D80661E08091990336
:102200000E94B110DF91CF910C94D7068091CB033F
:10221000813051F5909198038093A4029093A3028A
:102220001092A2021092A1028091CC039091CD0352
:10223000DC01ED91FC910190F081E02D6D2F09956D
:102240008091CC039091CD03DC01ED91FC91019044
:10225000F081E02D6C2F09958091CC039091CD03F6
:10226000DF91CF910C941008DF91CF910895CF9317
:10227000C82F843008F0C0E084EF0E94BE0F8C7F2E
:10228000682F6C2B84EFCF910C94E010CF93DF93E9
:1022900090E0FC01EE5BFA4F2491FC01E25DFA4F05
:1022A0008491882361F190E0880F991FFC01E65E1C
:1022B000FA4FC591D491FC01EC5DFA4FA591B49110
:1022C000611109C09FB7F894888120958223888383
:1022D000EC912E230BC0623061F49FB7F894888193
:1022E000322F309583238883EC912E2B2C939FBF24
:1022F00006C08FB7F894E8812E2B28838FBFDF911B
:10230000CF9108958F929F92AF92BF92CF92DF921A
:10231000EF92FF926B017C010E9419104B015C014E
:10232000C114D104E104F104F1F00E941910DC01A0
:10233000CB0188199909AA09BB09883E9340A105D8
:10234000B10570F321E0C21AD108E108F10888EE66
:10235000880E83E0981EA11CB11CC114D104E104B5
:10236000F10419F7DDCFFF90EF90DF90CF90BF9091
:10237000AF909F908F9008951F920F920FB60F927B
:1023800011242F933F938F939F93AF93BF9380918B
:10239000560890915708A0915808B091590830916B
:1023A000550823E0230F2D3720F40196A11DB11D00
:1023B00005C026E8230F0296A11DB11D20935508E4
:1023C0008093560890935708A0935808B0935908E3
:1023D00080915A0890915B08A0915C08B0915D08CB
:1023E0000196A11DB11D80935A0890935B08A0939C
:1023F0005C08B0935D08BF91AF919F918F913F9121
:102400002F910F900FBE0F901F901895CF93DF93D1
:10241000CDB7DEB76A970FB6F894DEBF0FBECDBF5B
:10242000789484B5826084BD84B5816084BD85B5AF
:10243000826085BD85B5816085BD80916E008160BB
:1024400080936E0010928100809181008260809361
:102450008100809181008160809381008091800063
:102460008160809380008091B10084608093B1008E
:102470008091B00081608093B00080917A00846088
:1024800080937A0080917A00826080937A008091B4
:102490007A00816080937A0080917A0080688093CE
:1024A0007A001092C100E091FE02F091FF0282E0FA
:1024B0008083E091FA02F091FB021082E091FC022D
:1024C000F091FD028FEC808310920603E0910203ED
:1024D000F091030386E08083E0910003F091010313
:1024E000808180618083E0910003F091010380810D
:1024F00088608083E0910003F0910103808180680F
:102500008083E0910003F091010380818F7D8083BF
:102510008CEA91E00E94280F8DEC91E00E94280F38
:102520008BE893E00E946C088BE893E09093CD03D6
:102530008093CC0381E08093CB031092970362E0F9
:1025400070E080E090E00E948211809197038823E0
:1025500019F0813069F049C08091CB03813009F0D6
:1025600044C08091CC039091CD030E946C083DC083
:102570001FB7F89480911402811127C0E8E3F5E0B9
:102580008491ECE4F5E09491E82FF0E0EE0FFF1F6A
:10259000E65EFA4FA591B491EC91E92321F461E054
:1025A0008AE00E94B11061E08AE00E9446118CB579
:1025B00080618CBD8CB580648CBD61E08DE00E9433
:1025C000461161E08BE00E944611809114028F5FFA
:1025D000809314021FBF61E0809199030E9446110D
:1025E00061E0809199030E94B11080ED0E94BE0FBE
:1025F000883519F0803609F0D4C589E80E94BE0FED
:10260000182F88E80E94BE0F212F30E0322F22279A
:10261000280F311D3093A7032093A6038BE80E9457
:10262000BE0F182F8AE80E94BE0F212F30E0322FF4
:102630002227280F311D3093A9032093A8038DE88A
:102640000E94BE0F182F8CE80E94BE0F212F30E091
:10265000322F2227280F311D3093AB032093AA037A
:102660008FE80E94BE0F182F8EE80E94BE0F212F08
:1026700030E0322F2227280F311D3093AD032093F5
:10268000AC0381E90E94BE0F182F80E90E94BE0FA3
:10269000212F30E0322F2227280F311D3093AF0336
:1026A0002093AE0383E90E94BE0F182F82E90E9497
:1026B000BE0F212F30E0322F2227280F311D3093FB
:1026C000B1032093B00385E90E94BE0F182F84E95F
:1026D0000E94BE0F212F30E0322F2227280F311DFC
:1026E0003093B3032093B20387E90E94BE0F182FE3
:1026F00086E90E94BE0F212F30E0322F2227280FBB
:10270000311D3093B5032093B40389E90E94BE0FB5
:10271000182F88E90E94BE0F212F30E0322F222788
:10272000280F311D3093B7032093B6038BE90E9425
:10273000BE0F182F8AE90E94BE0F212F30E0322FE2
:102740002227280F311D3093B9032093B8038DE958
:102750000E94BE0F182F8CE90E94BE0F212F30E07F
:10276000322F2227280F311D3093BB032093BA0349
:102770008FE90E94BE0F182F8EE90E94BE0F212FF5
:1027800030E0322F2227280F311D3093BD032093D4
:10279000BC0381EA0E94BE0F8093BE0382EE0E94BA
:1027A000BE0F182F81EE0E94BE0F212F30E0322F76
:1027B0002227280F311D3093C0032093BF0383EEDF
:1027C0000E94BE0F8093C10384EE0E94BE0F182F9B
:1027D00085EE0E94BE0F8F7090E020E1129F800D69
:1027E000911D11249093C3038093C20386EE0E942F
:1027F000BE0F182F85EE0E94BE0F82958F7090E05D
:1028000030E1139F800D911D11249093C503809397
:10281000C40387EE0E94BE0F8093C60310919D03F0
:10282000183008F010E085EF0E94BE0F40E2149FC0
:10283000900111248F71682F622B85EF0E94E010A8
:1028400010919E03183008F010E085EF0E94BE0F33
:1028500054E0159F90011124837E682F622B85EF31
:102860000E94E010E091A003E13128F4F0E0E05094
:10287000FF4F108101C011E084EF0E94BE0F082FAE
:1028800080E00E94371184EF0E94BE0F94E0199FF0
:1028900090011124837E682F622B84EF0E94E01048
:1028A000802F83700E943711E091A103E13128F459
:1028B000F0E0E050FF4F108101C011E084EF0E9472
:1028C000BE0F082F80E00E94371182EF0E94BE0FDA
:1028D000887F682F612B82EF0E94E010802F837029
:1028E0000E943711E0919F03E13128F4F0E0E050BD
:1028F000FF4F108101C011E084EF0E94BE0F082F2E
:1029000080E00E94371184EF0E94BE0FE0E21E9F1C
:10291000900111248F71682F622B84EF0E94E010C8
:10292000802F83700E94371183E00E94371180ED61
:102930000E94BE0F883519F0803609F032C4E0914C
:10294000DA03F091DB0320E030E040E06AE086ED5E
:1029500093E0099580915004882321F086ED93E05F
:102960000E946E0E80E00E94570E86ED93E00E945A
:102970008C0E1091110480911004180FE091D60371
:10298000F091D7038189181798F086ED93E00E94A3
:10299000820E80E00E94570EE091DA03F091DB0393
:1029A00020E030E040E06BE086ED93E00995A4C0C4
:1029B00080915004882321F086ED93E00E946E0EF2
:1029C000812FD1CF60E070E0CB0120E030E045E026
:1029D00053E40E945A1C6B017C019B01AC010E94D4
:1029E0007A1E882309F446C280ED91E00E94280FE8
:1029F0008CED91E00E94280FFF92EF92DF92CF9230
:102A00004EED51E05F934F93E1E0F0E0EC0FFD1FDE
:102A1000FF93EF930E948B1E86ED93E00E946E0E53
:102A20000FB6F894DEBF0FBECDBF80912104909108
:102A300022048856904009F0AFC282E69BE0909352
:102A4000D9038093D803CE0101960E94EB0E86ED48
:102A500093E00E948C0E86ED93E00E94820E62E36A
:102A600070E080E090E00E94821161E084E00E94CA
:102A7000B11061E085E00E94B110C701B6010E946B
:102A8000CC1C9B01AC012A58324041095109AFEFDF
:102A9000B0E00E94211A28EC30E040E050E00E94B3
:102AA000021A122F032FC22ED32E61E083E00E9460
:102AB0004611C114D10409F022C360E083E00E94F2
:102AC000B1100D2C000CEE08FF08F7FE66C36DE296
:102AD0008EEE92E00E94930966277727CB016C194E
:102AE0007D098E099F094AE00E943E108DEC91E01D
:102AF0000E94280F0E94020A43E067EFCE01019670
:102B00000E943A0F8091C7039091C803A091C90316
:102B1000B091CA036C017D01FF0CCC08DC2C76015E
:102B20009C01AD016C2D7C2D8C2D9C2D345F414082
:102B3000510961097109810991092E833F834887F1
:102B400059876A877B878C879D8759016A017B013A
:102B50008C010E945D1A2E873F87488B5E8B6F8B9E
:102B6000788F898F9A8F3091AF032091AE03932F86
:102B7000990F990B492F592F692F792F892F0E946F
:102B80005D1A0CE00E948D1B19012A013B014C01CA
:102B90003091B1032091B003932F990F990BAE841C
:102BA000BF84C888DE88EF88F88C098D1A8D492F7C
:102BB000592F692F792F892F0E945D1A08E00E94F2
:102BC000A61B51016201730184010E94C41B70584D
:102BD0008F4F9F4F2090AC033090AD035101C12C1B
:102BE000D12CE12CF12C00E010E00E945D1A01E2F2
:102BF0000E94A61B298B3A8B4B8B5C8B6D8B272EEF
:102C0000382E492EA0E00E94D61B09F4DBCE30916D
:102C1000B7032091B603932F990F990BAE84BF840D
:102C2000C888DE88EF88F88C098D1A8D492F592FB6
:102C3000692F792F892F0E945D1A2E873F87488B35
:102C4000552E3B014C013091B5032091B403932FD5
:102C5000990F990BAE80BF80C884D984EA84FB8425
:102C60000C851D85492F592F692F792F892F0E9497
:102C70005D1A01E10E948D1BAE84BF84C888D52CEB
:102C8000730184010E94C41B59016A017B01582E03
:102C9000192F8A8190E0A0E0B0E024E0880F991F0E
:102CA000AA1FBB1F2A95D1F72B8122952F703C01BB
:102CB0004D01622A898190E0A0E0B0E0AC01BD0145
:102CC0003CE0440F551F661F771F3A95D1F7D4019A
:102CD000C301842B952BA62BB72B20E030E040E1DD
:102CE00050E0281B390B4A0B5B0BDA01C901390193
:102CF0004A01990C6608762C43019C01AD01662DB2
:102D0000762D862D962D0FE10E948D1B39014A01EB
:102D1000B62FA72FF82FE92F3091B3032091B203DC
:102D2000932F990F990B492F592F692F792F892F9D
:102D300003E20E948D1B052D0E94C41B59016A01EC
:102D40007B018C019301A4016B2F7A2F8F2F9E2F73
:102D50000E94CD1BE5E3AE2EFCE0BF2EC12CD12C92
:102D6000E12CF12C00E010E00E945D1AA988BA88DD
:102D7000CB88DC88ED88F22C032D142D0E94B81A24
:102D80002E833F83488759876A877B878C879D87F7
:102D90000DE00E94A61B322E432E542E652E762E59
:102DA000872E982E292E3091BD032091BC03932F9E
:102DB000990F990BA32CB42CC52CD62CE72CF82CEE
:102DC000092D122D492F592F692F792F892F0E94F4
:102DD0005D1A0E945D1A09E10E94A61BAE80BF80A9
:102DE000C884D984EA84FB840C851D850E94C41B99
:102DF00019012A013B014C013091BB032091BA0318
:102E0000932F990F990B492F592F692F792F892FBC
:102E10000E945D1A03E10E94A61B59016A017B0111
:102E20008C019101A201B301C4010E94C41B08E0FE
:102E30000E94A61B59016A017B01E82F192F3091CE
:102E4000B9032091B803932F990F990B492F592F4C
:102E5000692F792F892F04E00E948D1B0E2F0E946D
:102E6000C41B0E94021D20E030E040E85BE30E94AA
:102E70000D1EABCD46015701E894B7F82FEF3FEF99
:102E80004FE75FE7C501B4010E947A1E81110DC0B2
:102E90002FEF3FEF4FE75FE7C501B4010E94551CDC
:102EA00018161CF484ED91E0A1CD2FEF3FEF4FE712
:102EB0005FE4C701B6010E94081E18161CF488EDD5
:102EC00091E094CD2FEF3FEF4FE75FECC701B601E4
:102ED0000E94551C87FDF3CF20E030E0A901C70117
:102EE000B6010E94551C87FF09C06DE28EEE92E08C
:102EF0000E949309C701B601905802C0C701B601EC
:102F00002AE037ED43EA5BE30E94E91B2B013C0119
:102F10000E94D31C4B015C010E94081D9B01AC0167
:102F2000C301B2010E94E81B2B013C014AE0C5012C
:102F3000B4010E943E106EE28EEE92E00E94930970
:102F400020E030E040E251E4C301B2010E940D1ED6
:102F50002B013C010E94D31C4B01A12CB12C4AE057
:102F6000C501B4010E943E10C501B4010E94081DB4
:102F70009B01AC01C301B2010E94E81B20E030E0DC
:102F800040E251E40E940D1E0E94D31C80E090E0BC
:102F90004AE00E943E102CCD48E650E050932204B7
:102FA00040932104FA01849180933204E9E6F0E031
:102FB000849180933304EAE6F0E0849180933404B2
:102FC000EBE6F0E0849180933504ECE6F0E0849148
:102FD00080933604EDE6F0E0849180933704EEE6CA
:102FE000F0E0849180933804EFE6F0E084918093E0
:102FF0003904E0E7F0E0E491E0933A04E1E7F0E03F
:10300000E491E0933B04E2E7F0E0E491E0933C04D8
:10301000E3E7F0E0E491E0933D04E4E7F0E0E491DD
:10302000E0933E04E5E7F0E0E491E0933F04E6E757
:10303000F0E0E491E0934004E7E7F0E0E491E0930E
:103040004104E8E7F0E0E491E093420461E1CA0161
:103050000E94F404909344048093430463E188E65F
:1030600090E00E94F404909346048093450465E147
:1030700088E690E00E94F40490934804809347040B
:103080008091210490912204892B09F4D6CC80915F
:103090003F0480934B044091400440934C04909132
:1030A0004A04992309F4C9CC913071F490914104F8
:1030B000891714F490934B048091420484170CF008
:1030C000BCCC80934C04B9CC30913C0420913E049C
:1030D000082E000C990B622F022E000C770B630F49
:1030E000711D37FD7A95861797071CF4320F3093C0
:1030F0004B0424170CF0A1CC20934C049ECCFFEF82
:10310000CF16D10411F461E0D9CCE9E5F5E0E49102
:10311000E33009F148F4E130C9F0E230C1F584B59B
:10312000806284BD18BDCDCCE73009F1E83039F1BB
:10313000E43069F580918000806280938000812F67
:10314000902F90938B0080938A00BBCC84B58068CD
:1031500084BD17BDB6CC80918000806880938000CC
:10316000812F902F9093890080938800AACC809122
:10317000B00080688093B0001093B300A2CC80911F
:10318000B00080628093B0001093B4009ACC20E825
:10319000C216D1040CF0B7CF90CC4AE0C701B601FB
:1031A000A3CC83EE91E00E94280F8DEC91E00E9469
:1031B000280FFFCFCF93DF931092F1021092F0020D
:1031C00088EE93E0A0E0B0E08093F2029093F302E7
:1031D000A093F402B093F5022AE731E03093EF02B6
:1031E0002093EE0225EC30E03093FB022093FA02AC
:1031F00024EC30E03093FD022093FC0220EC30E020
:103200003093FF022093FE0221EC30E03093010363
:103210002093000322EC30E0309303032093020359
:1032200026EC30E03093050320930403109207034B
:10323000109208031092090310920A0310928E0351
:1032400010928D0380938F0390939003A09391032A
:10325000B09392038CE891E090938C0380938B035E
:103260001092D5031092D40382E69BE0909352040F
:103270008093510410925304109254041092EE0360
:103280008EE991E09093D3038093D2031092D703F9
:103290001092D6031092EB031092E2031092E30314
:1032A0001092E4031092E5038FEF8093EC03809378
:1032B000F003E4EFF3E0DFEF819394E0EA30F90705
:1032C000D1F785E99AE09093DB038093DA038AE4EF
:1032D0009CE09093DD038093DC038EE998E090936B
:1032E000DF038093DE0388E694E09093E10380930C
:1032F000E00320E030E040E069E086ED93E00E94EA
:10330000950A10922204109221048EEB9BE0909378
:103310000B0480930A0485E594E090930F04809356
:103320000E0488E0809310041092110410922E0471
:1033300010924E04C1E0C0934F04C093500486EA3B
:1033400091E090930D0480930C0486ED93E00E942D
:10335000790B10921D0410921F04D0931E04D09379
:103360002004E0910C04F0910D040280F381E02D23
:1033700086ED93E009958AE19CE090932404809384
:10338000230410923104D093FF03D0930004D09310
:10339000010482E580939A03C0939B03C093CB03FF
:1033A00080E896EEA5ECB7E48093CE039093CF032C
:1033B000A093D003B093D1031092970387E7809333
:1033C00098038BE893E09093CD038093CC038AE03D
:1033D0008093990383E080939C0310929D03109245
:1033E0009E03C0939F03C093A003C093A1031092B8
:1033F000A2031092A3031092A4031092A503DF91DD
:10340000CF910895052E97FB1EF400940E94191A7F
:1034100057FD07D00E942C1A07FC03D04EF40C94E1
:10342000191A50954095309521953F4F4F4F5F4F5A
:10343000089590958095709561957F4F8F4F9F4F20
:1034400008950E944E1AA59F900DB49F900DA49FC1
:10345000800D911D11240895A1E21A2EAA1BBB1BF9
:10346000FD010DC0AA1FBB1FEE1FFF1FA217B30750
:10347000E407F50720F0A21BB30BE40BF50B661F66
:10348000771F881F991F1A9469F76095709580952A
:1034900090959B01AC01BD01CF010895A29FB001A1
:1034A000B39FC001A39F700D811D1124911DB29F78
:1034B000700D811D1124911D0895DF93CF931F93EB
:1034C0000F939A9DF02D219FF00D8B9DF00D8A9DFD
:1034D000E02DF10D039FF00D029FE00DF11D4E9DBB
:1034E000E00DF11D5E9DF00D4F9DF00D7F936F93EC
:1034F000BF92AF925F934F93D5010E944E1A8B01FA
:10350000AC01D7010E944E1AEB01E80FF91FD6015A
:103510000E94AD1A2F913F91D6010E944E1AC60FFC
:10352000D71FE81FF91FAF91BF910E94AD1A2F91CD
:103530003F910E944E1AC60FD71FE81FF91FD601F0
:103540000E944E1AE60FF71F9801BE01CF01112409
:103550000F911F91CF91DF9108950E944E1A460F4F
:10356000571FC81FD91F08F431960895689401C0E9
:10357000E894F92FF12B12F00C94EA1AA0E0B0E0D5
:10358000E4ECFAE10C945C1B092E059422F40E94F1
:10359000461B112392F4F0E80F26FFEFE094F0941D
:1035A00000951095B094C094D094A194BF0ACF0A0E
:1035B000DF0AEF0AFF0A0F0B1F0B0E94F51A07FC28
:1035C0000E94461BCDB7DEB7ECE00C94781B6894E4
:1035D00001C0E8948F929F92CF93DF930E94F51AD7
:1035E000DF91CF919F908F90089588249924F401C2
:1035F000E401B0E49F93AA279A158B049C04ED057F
:10360000FE05CF05D007A10798F4AD2FDC2FCF2FF3
:10361000FE2FE92D982C892E982F872F762F652F36
:10362000542F432F322F2227B85031F7BF9127C094
:103630001B2EBF91BB27220F331F441F551F661F30
:10364000771F881F991F881C991CEE1FFF1FCC1F16
:10365000DD1FAA1FBB1F8A149B04EC05FD05CE05C8
:10366000DF05A007B10748F08A189B08EC09FD099F
:10367000CE09DF09A00BB10B21601A94E1F62EF4FC
:103680009401AF01BE01CD01000C089560957095C5
:103690008095909530954095509521953F4F4F4F8F
:1036A0005F4F6F4F7F4F8F4F9F4F08952F923F92E5
:1036B0004F925F926F927F928F929F92AF92BF9242
:1036C000CF92DF92EF92FF920F931F93CF93DF93EE
:1036D000CDB7DEB7CA1BDB0B0FB6F894DEBF0FBE4B
:1036E000CDBF09942A88398848885F846E847D8498
:1036F0008C849B84AA84B984C884DF80EE80FD809A
:103700000C811B81AA81B981CE0FD11D0FB6F8940F
:10371000DEBF0FBECDBFED0108950F93083090F0CE
:10372000982F872F762F652F542F432F322F222744
:103730000850F4CF220F331F441F551F661F771FF9
:10374000881F991F0A95B2F70F91089597FB10F8FB
:10375000169400080F93083098F00850232F342F48
:10376000452F562F672F782F892F902DF4CF059452
:1037700097958795779567955795479537952795A9
:103780000A95AAF70F9108952A0D3B1D4C1D5D1D4A
:103790006E1D7F1D801F911F08952A193B094C093A
:1037A0005D096E097F09800B910B08950024A7FD28
:1037B00000942A1730054005500560057005800506
:1037C00090050895EE0FFF1F0590F491E02D0994E8
:1037D0005058BB27AA270E94001C0C94CE1D0E94A3
:1037E000C01D38F00E94C71D20F039F49F3F19F426
:1037F00026F40C94AD1D0EF4E095E7FB0C94A71D88
:10380000E92F0E94DF1D58F3BA1762077307840778
:10381000950720F079F4A6F50C94011E0EF4E095BE
:103820000B2EBA2FA02D0B01B90190010C01CA017A
:10383000A0011124FF27591B99F0593F50F4503E25
:1038400068F11A16F040A22F232F342F4427585F17
:10385000F3CF469537952795A795F0405395C9F72F
:103860007EF41F16BA0B620B730B840BBAF09150E7
:10387000A1F0FF0FBB1F661F771F881FC2F70EC086
:10388000BA0F621F731F841F48F487957795679559
:10389000B795F7959E3F08F0B0CF9395880F08F045
:1038A0009927EE0F9795879508950E94831D08F438
:1038B00081E008950E946E1C0C94CE1D0E94C71DCD
:1038C00058F00E94C01D40F029F45F3F29F00C948D
:1038D000A71D51110C94021E0C94AD1D0E94DF1DFA
:1038E00068F39923B1F3552391F3951B550BBB272F
:1038F000AA2762177307840738F09F5F5F4F220F74
:10390000331F441FAA1FA9F335D00E2E3AF0E0E86A
:1039100032D091505040E695001CCAF72BD0FE2FB4
:1039200029D0660F771F881FBB1F26173707480748
:10393000AB07B0E809F0BB0B802DBF01FF27935800
:103940005F4F3AF09E3F510578F00C94A71D0C9400
:10395000021E5F3FE4F3983ED4F386957795679512
:10396000B795F7959F5FC9F7880F911D9695879535
:1039700097F90895E1E0660F771F881FBB1F621754
:1039800073078407BA0720F0621B730B840BBA0B12
:10399000EE1F88F7E09508950E94D31C6894B1113A
:1039A0000C94021E08950E94E71D88F09F5798F01E
:1039B000B92F9927B751B0F0E1F0660F771F881F34
:1039C000991F1AF0BA95C9F714C0B13091F00E944E
:1039D000011EB1E008950C94011E672F782F8827EF
:1039E000B85F39F0B93FCCF3869577956795B39575
:1039F000D9F73EF490958095709561957F4F8F4FE4
:103A00009F4F089597FB16F40E94B01D0C94461D1D
:103A1000E89409C097FB3EF4909580957095619568
:103A20007F4F8F4F9F4F9923A9F0F92F96E9BB271E
:103A30009395F695879577956795B795F111F8CF9A
:103A4000FAF4BB0F11F460FF1BC06F5F7F4F8F4F05
:103A50009F4F16C0882311F096E911C0772321F0FB
:103A60009EE8872F762F05C0662371F096E8862F93
:103A700070E060E02AF09A95660F771F881FDAF7EA
:103A8000880F9695879597F90895E894F92F96EB06
:103A9000FF2381F0121613061406440B9395F69536
:103AA00087957795679557954040FF23B9F71BC0D9
:103AB00099270895882351F49850D2F7872B762FB1
:103AC000652F542F432F322F20E0B1F31216130627
:103AD0001406440B88233AF09A95440F551F661F2D
:103AE000771F881FCAF755234AF4440F551F11F456
:103AF00060FF04C06F5F7F4F8F4F9F4F880F969579
:103B0000879597F90895990F0008550FAA0BE0E8DB
:103B1000FEEF16161706E807F907C0F0121613068F
:103B2000E407F50798F0621B730B840B950B39F4CF
:103B30000A2661F0232B242B252B21F408950A2635
:103B400009F4A140A6958FEF811D811D089597F975
:103B50009F6780E870E060E008959FEF80EC089533
:103B600090958095709560955095409530952195EC
:103B70003F4F4F4F5F4F6F4F7F4F8F4F9F4F089576
:103B800000240A941616170618060906089500243C
:103B90000A9412161306140605060895092E0394B6
:103BA000000C11F4882352F0BB0F40F4BF2B11F42A
:103BB00060FF04C06F5F7F4F8F4F9F4F089557FD89
:103BC0009058440F551F59F05F3F71F04795880F8B
:103BD00097FB991F61F09F3F79F087950895121622
:103BE00013061406551FF2CF4695F1DF08C01616CE
:103BF00017061806991FF1CF86957105610508947F
:103C00000895E894BB2766277727CB0197F9089595
:103C10000E94831D08F48FEF08950E94201E0C94CB
:103C2000CE1D0E94C01D38F00E94C71D20F09523B4
:103C300011F00C94A71D0C94AD1D11240C94021EC0
:103C40000E94DF1D70F3959FC1F3950F50E0551F43
:103C5000629FF001729FBB27F00DB11D639FAA27E1
:103C6000F00DB11DAA1F649F6627B00DA11D661F30
:103C7000829F2227B00DA11D621F739FB00DA11D51
:103C8000621F839FA00D611D221F749F3327A00D0B
:103C9000611D231F849F600D211D822F762F6A2FA7
:103CA00011249F5750409AF0F1F088234AF0EE0F0C
:103CB000FF1FBB1F661F771F881F91505040A9F739
:103CC0009E3F510580F00C94A71D0C94021E5F3F8F
:103CD000E4F3983ED4F3869577956795B795F79575
:103CE000E7959F5FC1F7FE2B880F911D96958795ED
:103CF00097F908950E94831D880B990B089581E020
:103D000090E0F8940C943E21DC0101C06D93415089
:103D10005040E0F70895AEE0B0E0E1E9FEE10C9438
:103D2000641B0D891E8986E08C831A8309838FEFBB
:103D30009FE79E838D83AE01475E5F4F6F89788DCD
:103D4000CE0101960E94AD1EEF81F885E00FF11FB4
:103D500010822E96E4E00C94801BABE0B0E0E3EB25
:103D6000FEE10C94561B6C017B018A01FC01178259
:103D70001682838181FFCCC1CE0101963C01F60100
:103D80009381F70193FD859193FF81917F018823B2
:103D900009F4BAC1853239F493FD859193FF81917D
:103DA0007F01853229F4B60190E00E94A420E7CF7C
:103DB000912C212C312CFFE1F315D8F08B3279F0C6
:103DC00038F4803279F08332A1F4232D20611DC0B4
:103DD0008D3261F0803369F4232D216016C0832D6C
:103DE0008260382EE32DE4603E2E2AC0F32DF86069
:103DF0001DC037FC2DC020ED280F2A3040F08E3238
:103E0000B9F436FC81C1232D2064322E19C036FE50
:103E100006C08AE0989E200D1124922E11C0EAE07F
:103E20002E9E200D1124222EF32DF0623F2E08C06D
:103E30008C3621F4832D8068382E02C0883641F4F8
:103E4000F70193FD859193FF81917F018111B3CF9C
:103E5000982F9F7D9554933028F40C5F1F4F9FE35C
:103E600099830DC0833631F0833771F0833509F0C3
:103E700059C021C0F801808189830E5F1F4F8824BB
:103E80008394912C530113C02801F2E04F0E511C72
:103E9000F801A080B18036FE03C0692D70E002C039
:103EA0006FEF7FEFC5010E9499204C018201F32D35
:103EB000FF773F2E16C0280122E0420E511CF80168
:103EC000A080B18036FE03C0692D70E002C06FEFA4
:103ED0007FEFC5010E948E204C01F32DF0683F2E2C
:103EE000820133FC1BC0822D90E088169906B0F445
:103EF000B60180E290E00E94A4202A94F4CFF5015C
:103F000037FC859137FE81915F01B60190E00E94F8
:103F1000A42021102A9421E0821A9108811491048E
:103F200071F7E8C0843611F0893641F5F80137FEA3
:103F300007C060817181828193810C5F1F4F08C02F
:103F400060817181072E000C880B990B0E5F1F4F4B
:103F5000F32DFF763F2E97FF09C0909580957095C1
:103F600061957F4F8F4F9F4FF0683F2E2AE030E0E2
:103F7000A3010E94E020882E861845C0853731F4C1
:103F8000232D2F7EB22E2AE030E025C0932D997F7D
:103F9000B92E8F36C1F018F4883579F0B5C0803766
:103FA00019F0883721F0B0C0E92FE061BE2EB4FED1
:103FB0000DC0FB2DF460BF2E09C034FE0AC0292FAE
:103FC0002660B22E06C028E030E005C020E130E0D7
:103FD00002C020E132E0F801B7FE07C060817181C4
:103FE000828193810C5F1F4F06C06081718180E0E8
:103FF00090E00E5F1F4FA3010E94E020882E8618DC
:10400000FB2DFF773F2E36FE0DC0232D2E7FA22ED7
:10401000891458F434FE0BC032FC09C0832D8E7E07
:10402000A82E05C0B82CA32C03C0B82C01C0B92CF5
:10403000A4FE0FC0FE01E80DF11D8081803321F444
:104040009A2D997EA92E09C0A2FE06C0B394B394FE
:1040500004C08A2D867809F0B394A3FC11C0A0FE99
:1040600006C0B21488F4280C922C9B180EC0B2140F
:1040700060F4B60180E290E00E94A420B394F7CFF0
:10408000B21418F42B1802C0982C212CA4FE10C0D6
:10409000B60180E390E00E94A420A2FE17C0A1FC1C
:1040A00003C088E790E002C088E590E0B6010CC04C
:1040B0008A2D867859F0A1FE02C08BE201C080E211
:1040C000A7FC8DE2B60190E00E94A420891438F488
:1040D000B60180E390E00E94A4209A94F7CF8A94DE
:1040E000F301E80DF11D8081B60190E00E94A4204B
:1040F0008110F5CF222009F442CEB60180E290E093
:104100000E94A4202A94F6CFF6018681978102C0EE
:104110008FEF9FEF2B96E2E10C94721BFC01059050
:10412000615070400110D8F7809590958E0F9F1FB9
:104130000895FC016150704001900110D8F78095FE
:1041400090958E0F9F1F08950F931F93CF93DF932A
:10415000FB01238121FD03C08FEF9FEF2CC022FFC5
:1041600016C046815781248135814217530744F494
:10417000A081B1819D012F5F3F4F318320838C93BC
:10418000268137812F5F3F4F3783268314C08B01F1
:10419000EC01FB010084F185E02D0995892BE1F606
:1041A000D80116968D919C911797019617969C931E
:1041B0008E931697CE01DF91CF911F910F910895A5
:1041C000FA01AA27283051F1203181F1E8946F9348
:1041D0006E7F6E5F7F4F8F4F9F4FAF4FB1E03ED0EE
:1041E000B4E03CD0670F781F891F9A1FA11D680F8C
:1041F000791F8A1F911DA11D6A0F711D811D911DBF
:10420000A11D20D009F468943F912AE0269F112433
:104210003019305D3193DEF6CF010895462F477097
:10422000405D4193B3E00FD0C9F7F6CF462F4F70F2
:10423000405D4A3318F0495D31FD4052419302D050
:10424000A9F7EACFB4E0A6959795879577956795F6
:10425000BA95C9F700976105710508959B01AC01F6
:104260000A2E06945795479537952795BA95C9F71D
:10427000620F731F841F951FA01D0895F894FFCF30
:104280000001020103010101040101010101010119
:10429000051815A015C019FF1815A115C819FF1884
:1042A00015AE19FF1815AF19FF1815AE15D51680E4
:1042B00015A8163F15D316001540158D1614152098
:1042C000160015A115C815DA1612158116CF15D9C5
:1042D00016F115DB1640152E15A415A619FF0001C1
:1042E000140A6464323200127A000004289610081E
:1042F00000008000400000000000930900092A0926
:10430000E0095B0939094D0900000000B403870387
:104310000C045B037F036B035C03000000008D064D
:10432000E3030C040B04790B350D6C0B52656164CF
:10433000696E672062617369632076616C7565736D
:104340002066726F6D20424D45323830000D0A00F4
:104350006E616E00696E66006F7666002C00252E19
:104360003266005468652073656E736F72206469ED
:1043700064206E6F7420726573706F6E642E2050AF
:104380006C6561736520636865636B20776972692A
:044390006E672E0026
:00000001FF
